:100000000C943C000C9459000C9459000C94590029
:100010000C9459000C9459000C9459000C945900FC
:100020000C942B040C9459000C9459000C94590016
:100030000C9459000C94B7030C94D1030C94590000
:100040000C948B030C9459000C9459000C94590097
:100050000C9459000C9459000C9459000C946403AE
:100060000C9459000C9459000C9459000C945900AC
:100070000C9459000C94590011241FBECFEFCDBF32
:10008000DFE3DEBF18E3A0E0B8E3ECE5F3E102C094
:1000900005900D92A230B107D9F728E3A2E0B8E3AA
:1000A00001C01D92AD36B207E1F70E9466040C94C0
:1000B000AC090C940000FC01818190E0FB012181DE
:1000C000821B9109089580910338609102380E9443
:1000D0006107292F892F90E0FC01EE0FFF1F8E0F83
:1000E0009F1FFC01EC5DF74C6081718182812F5F65
:1000F0002093033808958F929F92AF92BF92CF9230
:10010000DF92EF92FF920F931F93CF938C016A01BE
:100110007B01C22F20E73EEC48E85CE3C701B60153
:100120000E94F4064B015C0120E030E040E752E41D
:10013000C701B6010E940E06882394F46C2F70E06C
:1001400080E090E00E9444069B01AC01C501B4012F
:100150000E94F406EC2E0E941306F62EC0E0CCC0DE
:1001600020E030E040EF52E4C701B6010E940E06E5
:100170008823E4F46C2F70E080E090E00E94440655
:100180006B017C01A501940160E070E080E090E4E7
:100190000E94A1059B01AC01C701B6010E94F406B3
:1001A0000E941306E62EFC2EC0E0A6C020E030E040
:1001B00044E353E4C701B6010E940E068823E4F429
:1001C0006C2F70E080E090E00E9444066B017C019F
:1001D00020E030E040E050E4C501B4010E94A105F8
:1001E0009B01AC01C701B6010E94F406E12CFC2E74
:1001F0000E941306C62F80C020E030E044E353E4A1
:10020000C701B6010E940E06811103C0E12CF12C3A
:1002100073C020E030E040E753E4C701B6010E941C
:100220000E068823DCF46C2F70E080E090E00E94E2
:1002300044066B017C01A501940160E070E080E45C
:1002400090E40E94A1059B01AC01C701B6010E9488
:10025000F406E12C0E941306F62E4EC020E030E09A
:1002600046E953E4C701B6010E940E068823DCF478
:100270006C2F70E080E090E00E9444066B017C01EE
:1002800020E030E040E850E4C501B4010E94A1053F
:100290009B01AC01C701B6010E94F4060E9413063F
:1002A000E62EF12C29C020E030E044EB53E4C701F6
:1002B000B6010E940E06811104C0EC2EF12CC0E0A4
:1002C0001BC06C2F70E080E090E00E9444066B0140
:1002D0007C01A501940160E070E080EC90E40E9454
:1002E000A1059B01AC01C701B6010E94F406EC2EEA
:1002F000F12C0E941306C62FF801E182F382C58318
:10030000CF911F910F91FF90EF90DF90CF90BF9012
:10031000AF909F908F900895A8E4B8E381E08C930C
:10032000ECE0F8E3808382E012968C93129782834C
:1003300014961C921497148286E016968C93169746
:10034000868387E018968C931897808785E01A96A5
:100350008C931A97828789E01C968C931C978487CC
:100360008AE01E968C931E97868788E050968C9321
:100370005097808B8EE052968C935297828B8FE0B1
:1003800054968C935497848B8DE056968C93868BE1
:100390000895CF92DF92EF92FF920F931F93CF9326
:1003A000DF93CDB7DEB72697CDBFDEBF49835A8333
:1003B0006B837C838D839E83690180E090E018C00D
:1003C0003981FC01EE0FFF1FEC0DFD1D2081321362
:1003D00003C02A8121830BC03B81231303C02C81DE
:1003E000218305C03D81231302C02E812183019604
:1003F0008C3091052CF32BE530E042E050E06CE0CE
:1004000070E0C6010E94BD0741E050E0F6010080A7
:1004100002C0440F551F0A94E2F740955095F80129
:1004200012824083518321E030E060E033C0862FA8
:1004300090E0FC01EE0FFF1F8E0F9F1FF801E80FE9
:10044000F91F8281871760F46F5F862F90E0FC01AF
:10045000EE0FFF1F8E0F9F1FF801E80FF91F728329
:1004600081E090E00C9002C0880F991F0A94E2F797
:100470008095909548235923862F90E0FC01EE0F3C
:10048000FF1F8E0F9F1FF801E80FF91F4083518354
:100490002F5F3F4F2C3031055CF4D901AA0FBB1FF1
:1004A000AC0DBD1D11967C9111977F3F09F0BFCF18
:1004B0006F5F623090F53AC021503109821793077F
:1004C00059F4FC01EE0FFF1FE80FF91FE00FF11FB9
:1004D000242F2095228316C0DC01AA0FBB1FA80F72
:1004E000B91FA00FB11F9C012F5F3F4FF901EE0F05
:1004F000FF1F2E0F3F1FF801E20FF31F2281241B65
:1005000012962C93FC01EE0FFF1FE80FF91FE00F6E
:10051000F11F2281420F019603C080E090E040E08D
:10052000262F30E0821793073CF203C08FEFF801CB
:100530008283F70160832696CDBFDEBFDF91CF9126
:100540001F910F91FF90EF90DF90CF900895EF9261
:10055000FF920F931F93CF93DF93F42EC82FD0E019
:1005600080E090E00E944206AB01BC018E01000FCA
:10057000111FC8018C0F9D1F880F991F2F2D885B9D
:10058000974C0E947B00F801EC0FFD1FEE0FFF1F40
:10059000E85BF74C0F2EF2E0EF2EF8E3FF2EF02D84
:1005A00004E218E32CE038E34081518162817381D9
:1005B000848195810E94C901DF91CF911F910F9194
:1005C000FF90EF900895CF93DF93EC01E0E4F4E027
:1005D00090819D7F908391899860918BA0E2B4E097
:1005E0009C91977F9C9353969C91539798605396B8
:1005F0009C93808581FD02C090E001C093E08091D2
:10060000280483FF02C081E098279883FB011082B1
:10061000DF91CF910895E0E0F4E080818A608083EB
:10062000E0E2F4E0808184608083E0ECF8E080E246
:10063000808384E881838081816080830895E0E005
:10064000FAE081E090E086A397A3828581608287AB
:1006500080818D6080830895E0E8FAE088E090E092
:10066000848795878581816085838081856080838B
:100670000895E0E0F4E0808180628083E0E4F4E0CB
:1006800080818860808308958091040485FF06C07E
:10069000E0E0F4E08681806286830895E0E0F4E0A3
:1006A00085818062858308958091440483FF06C01C
:1006B000E0E4F4E08681886086830895E0E4F4E075
:1006C00085818860858308951F920F920FB60F92DF
:1006D00011242F933F938F939F93EF93FF93E0E029
:1006E000F6E0858120911406309115068581886099
:1006F000858380E0932F822B8093603890936138BC
:10070000FF91EF919F918F913F912F910F900FBE8D
:100710000F901F9018951F920F920FB60F921124F1
:100720008F939F93EF93FF938091C30886FF16C02A
:10073000E0E2F4E0858184608583E0ECF8E0838189
:100740008064838382818F7B828380910038909143
:10075000013890628093003890930138FF91EF91B7
:100760009F918F910F900FBE0F901F9018951F9221
:100770000F920FB60F9211248F93EF93FF93E0E83F
:10078000FAE0868181608683809106388F5F80934E
:100790000638FF91EF918F910F900FBE0F901F9031
:1007A00018951F920F920FB60F9211248F93EF930B
:1007B000FF938091AB0886FF18C08091AB0883FF40
:1007C00009C0E0EAF8E083858860838782E080934F
:1007D000AA0825C08091AB0880FF04C083E0809305
:1007E000AA0803C082E08093AA088091AB088823FE
:1007F000B4F48091AB0881FF0BC080910B388F5F00
:1008000080930B388093AD0883E08093AA0807C0DB
:1008100083E08093AA088091AD0880930B38FF9104
:10082000EF918F910F900FBE0F901F901895209110
:10083000C30825FF0FC0E0ECF8E020E422832091FC
:1008400000383091013830682093003830930138F7
:100850009483848308951F920F920FB60F921124F0
:100860002F933F934F935F936F937F938F939F93B8
:10087000AF93BF93CF93DF93EF93FF93E0E2F4E066
:10088000868184608683C0E0DAE08B8581608B8717
:100890000E94630090E08EA39FA3862F972F0E9453
:1008A00017040E944403FF91EF91DF91CF91BF9114
:1008B000AF919F918F917F916F915F914F913F91F8
:1008C0002F910F900FBE0F901F90189560E081E65A
:1008D00090E00E9461090E9439030E941F030E9458
:1008E0002C030E940B030E948C014FEF60E070E02C
:1008F00080E00E94A7024FEF68E770E081E00E946D
:10090000A7024FEF60EF70E082E00E94A7024FEF76
:1009100060E070E083E00E94A7026CE678E387E085
:1009200098E30E94E3027894E0910438F09105384E
:1009300031969F01A3E8BDE20E946D07AC0100243F
:10094000440F551F001C440F551F001C452F502DF0
:10095000C8E6D1E04C9FC0014D9F900D5C9F900D6B
:100960001124AF01481B590B4093043850930538AC
:100970009A010E946D070024880F991F001C880FA0
:10098000991F001C892F902D8C9F90018D9F300DF9
:100990009C9F300D1124BA01621B730B4FEF80E056
:1009A0000E94A702409104385091053848585F4F83
:1009B0009A01A3E8BDE20E946D070024880F991FE9
:1009C000001C880F991F001C892F902D8C9F90016F
:1009D0008D9F300D9C9F300D1124BA01621B730B4B
:1009E0004FEF81E00E94A7024091043850910538F2
:1009F0004C545F4F9A01A3E8BDE20E946D070024AA
:100A0000880F991F001C880F991F001C892F902D9B
:100A10008C9F90018D9F300D9C9F300D1124BA0149
:100A2000621B730B4FEF82E00E94A70240910438D3
:100A30005091053840515F4F9A01A3E8BDE20E94F2
:100A40006D070024880F991F001C880F991F001C38
:100A5000892F902D8C9F90018D9F300D9C9F300D84
:100A60001124BA01621B730B4FEF83E00E94A702AF
:100A70008FE493EC0197F1F700C0000090910A38E1
:100A800080910638981709F44FCF809106388093EB
:100A90000A3880910A3880910A38803249F0809172
:100AA0000A38853729F080910A388B3C09F03CCF11
:100AB0008091480481FD02C090E001C093E08091E4
:100AC000280483FF02C081E0982780910738891BA2
:100AD00080FF09C090930738827090916C38890F1D
:100AE000815080936C3880916C38882309F41CCF36
:100AF0000E94540320916C388091083890910938F5
:100B0000820F911D27FD9A9580930838909309389C
:100B1000893621E092073CF088569140809308384E
:100B2000909309380BC099234CF428E631E0A901D1
:100B3000481B590B409308385093093810926C3871
:100B4000F3CE5058BB27AA270E94B9050C94BA06C9
:100B50000E94AC0638F00E94B30620F039F49F3FA3
:100B600019F426F40C94A9060EF4E095E7FB0C9416
:100B7000A306E92F0E94CB0658F3BA176207730742
:100B80008407950720F079F4A6F50C94ED060EF491
:100B9000E0950B2EBA2FA02D0B01B90190010C018D
:100BA000CA01A0011124FF27591B99F0593F50F4A5
:100BB000503E68F11A16F040A22F232F342F4427FD
:100BC000585FF3CF469537952795A795F0405395F5
:100BD000C9F77EF41F16BA0B620B730B840BBAF0C5
:100BE0009150A1F0FF0FBB1F661F771F881FC2F730
:100BF0000EC0BA0F621F731F841F48F48795779544
:100C00006795B795F7959E3F08F0B0CF9395880FFD
:100C100008F09927EE0F9795879508950E947F0613
:100C200008F481E008950E94D30688F09F5798F059
:100C3000B92F9927B751B0F0E1F0660F771F881FE1
:100C4000991F1AF0BA95C9F714C0B13091F00E94FB
:100C5000ED06B1E008950C94ED06672F782F8827F4
:100C6000B85F39F0B93FCCF3869577956795B39522
:100C7000D9F73EF490958095709561957F4F8F4F91
:100C80009F4F0895E89409C097FB3EF49095809596
:100C9000709561957F4F8F4F9F4F9923A9F0F92F42
:100CA00096E9BB279395F695879577956795B795C0
:100CB000F111F8CFFAF4BB0F11F460FF1BC06F5FA6
:100CC0007F4F8F4F9F4F16C0882311F096E911C0B8
:100CD000772321F09EE8872F762F05C0662371F0D9
:100CE00096E8862F70E060E02AF09A95660F771FED
:100CF000881FDAF7880F9695879597F90895990FC9
:100D00000008550FAA0BE0E8FEEF16161706E807D5
:100D1000F907C0F012161306E407F50798F0621BF6
:100D2000730B840B950B39F40A2661F0232B242BCB
:100D3000252B21F408950A2609F4A140A6958FEFEA
:100D4000811D811D089597F99F6780E870E060E03C
:100D500008959FEF80EC089500240A941616170654
:100D600018060906089500240A941216130614069C
:100D700005060895092E0394000C11F4882352F0FF
:100D8000BB0F40F4BF2B11F460FF04C06F5F7F4FB7
:100D90008F4F9F4F089557FD9058440F551F59F09E
:100DA0005F3F71F04795880F97FB991F61F09F3F58
:100DB00079F087950895121613061406551FF2CF81
:100DC0004695F1DF08C0161617061806991FF1CFD1
:100DD00086957105610508940895E894BB276627F8
:100DE0007727CB0197F908950E9407070C94BA065C
:100DF0000E94AC0638F00E94B30620F0952311F053
:100E00000C94A3060C94A90611240C94EE060E94DF
:100E1000CB0670F3959FC1F3950F50E0551F629F6D
:100E2000F001729FBB27F00DB11D639FAA27F00D43
:100E3000B11DAA1F649F6627B00DA11D661F829F6A
:100E40002227B00DA11D621F739FB00DA11D621F4F
:100E5000839FA00D611D221F749F3327A00D611D6C
:100E6000231F849F600D211D822F762F6A2F11244E
:100E70009F5750409AF0F1F088234AF0EE0FFF1F81
:100E8000BB1F661F771F881F91505040A9F79E3FD8
:100E9000510580F00C94A3060C94EE065F3FE4F33A
:100EA000983ED4F3869577956795B795F795E7952E
:100EB0009F5FC1F7FE2B880F911D9695879597F937
:100EC0000895991B79E004C0991F961708F0961BA6
:100ED000881F7A95C9F780950895A29FB001B39FA6
:100EE000C001A39F700D811D1124911DB29F700D33
:100EF000811D1124911D0895DC01FB018C919081CD
:100F00009D9381934150510914161506BCF3089521
:100F1000A0E0B0E0EEE8F7E00C9485097C016B01FD
:100F2000D42FC52F8901F90109956D2F7C2F97FFCB
:100F300010C0C601F801099597FF02C0C60118C08C
:100F40006D2F7C2FC701F801099597FD0FC0C701D0
:100F50000FC0C601F8010995181619067CF36D2F0C
:100F60007C2FC701F801099597FDF1CF8D2F9C2F9C
:100F7000CDB7DEB7E8E00C949E09AAE0B0E0E3EC60
:100F8000F7E00C947B098C017B0149875A87690142
:100F900029853A85200F311F29833A8337E0E316EC
:100FA000F10470F569807A8049855A85E49E500184
:100FB000E59EB00CF49EB00C1124A00EB11E6A1474
:100FC0007B0408F07AC173010E151F0528F089858E
:100FD0009A85680E791EF3CF4701E985FA858E1A46
:100FE0009F0AB701C401F6010995181619067CF786
:100FF00049855A85B401C7010E947C077401E4CF7A
:10100000C7019695879529853A85829F5001839FD0
:10101000B00C929FB00C1124A00EB11EA70141503C
:1010200051094B835C8357E0E516F10409F44CC089
:101030008B819C81829F3001839F700C929F700CEA
:101040001124600E711E99E2E916F104A8F1C7019E
:1010500043E0969587954A95E1F7829F4001839FEB
:10106000900C929F900C11241401220C331CA801A7
:10107000420D531DB801680D791D9601C8010E94EB
:1010800088072C01A501480D591D91948194910860
:101090009601B501C501880D991D0E9488075C0164
:1010A000B301680D791D9601A301C301821993094B
:1010B0000E9488073C0101C028019601A301B501E7
:1010C000C2010E9488075C0149855A85B501C801A3
:1010D0000E947C0769807A802B813C8149855A85F2
:1010E000249FF001259FF00D349FF00D1124ED8316
:1010F000FE835F01A00EB11E460D571D4B835C831E
:101100002501130119821A828B809C8089859A851A
:10111000881A990AA814B90408F450C0B801C40187
:10112000F601099518161906C4F1892B71F4498541
:101130005A85B401C1010E947C0789859A85280ED1
:10114000391EE1E0F0E0E983FA832B813C81498597
:101150005A85240F351F2B833C83D6CFB801C50198
:10116000F6010995950149855A85241B350B2F8376
:10117000388797FD16C0892B71F449855A85B201CD
:10118000C5010E947C0729853A85421A530A41E02D
:1011900050E049835A83AF80B884A814B904F0F6AC
:1011A0000DC049855A85B501C4010E947C07AF80F6
:1011B000B88441E050E049835A83C7CF89819A813E
:1011C000892B09F44FC06D807E8029853A85620E97
:1011D000731E600E711E7401E218F308A101401B1A
:1011E000510BE416F5060CF4A7011416150634F499
:1011F000B401641B750BC8010E947C07A2014A1947
:101200005B095A01A3014419550989859A85481B30
:10121000590BA416B50608F4A5011416150634F4E6
:10122000B301641B750BC4010E947C07E985FA8534
:10123000EE15FF0548F4C701BF010E94670996013A
:10124000AF01C8010E94BD0729853A852A153B05D3
:10125000A0F583010A191B09C501B9010E9467099C
:101260007B0196CEE985FA85EE9E5001EF9EB00C8B
:10127000FE9EB00C1124A00EB11E6A147B04E8F48B
:1012800073010E151F0528F089859A85680E791E51
:10129000F4CF4701E985FA858E1A9F0AB701C40188
:1012A000F6010995181619067CF749855A85B40187
:1012B000C7010E947C077401E4CF2A96E2E10C94F6
:1012C0009409DC0128ED209334006C930895AA1B47
:1012D000BB1B51E107C0AA1FBB1FA617B70710F021
:1012E000A61BB70B881F991F5A95A9F78095909553
:1012F000BC01CD0108952F923F924F925F926F9261
:101300007F928F929F92AF92BF92CF92DF92EF9295
:10131000FF920F931F93CF93DF93CDB7DEB7CA1B16
:10132000DB0BCDBFDEBF09942A88398848885F84EB
:101330006E847D848C849B84AA84B984C884DF8075
:10134000EE80FD800C811B81AA81B981CE0FD11D59
:0C135000CDBFDEBFED010895F894FFCF83
:02135C0003107C
:00000001FF
