:100000000C948A000C94A7000C94A7000C94A700F1
:100010000C94A7000C94A7000C94A7000C94A700C4
:100020000C9413010C94A7000C94A7000C94A70047
:100030000C94A7000C9447010C9476010C94A70033
:100040000C94E4000C94A7000C94A7000C94A70057
:100050000C94A7000C94A7000C94A7000C94B40077
:100060000C94A7000C94A7000C94A7000C94A70074
:100070000C94A7000C94A7001B078507850785072C
:1000800085078507850785078507850785071F0776
:100090008507850785078507850785078507850700
:1000A0008507850723078507850785078507850752
:1000B000850785078507850785072707850785073E
:1000C00085078507850785078507850785078507D0
:1000D0002B0785078507850785078507850785071A
:1000E00085078507850736078507850785078507FF
:1000F00085078507850785078507850742078507E3
:10010000850785078507850785078507850785078F
:1001100085074E0711241FBECFEFCDBFDFE3DEBF43
:1001200018E3A0E0B8E3ECE2F8E102C005900D921C
:10013000A430B107D9F728E3A4E0B8E301C01D92C9
:10014000A93CB207E1F70E940B020C94140C0C942A
:100150000000E0E0F4E0808180628083E0E4F4E08D
:1001600080818860808308951F920F920FB60F924E
:1001700011242F933F934F935F936F937F938F93AC
:100180009F93AF93BF93EF93FF9320911406309109
:100190001506E0E0F6E085818860858380E0932F96
:1001A000822B0E949102FF91EF91BF91AF919F919D
:1001B0008F917F916F915F914F913F912F910F9010
:1001C0000FBE0F901F9018951F920F920FB60F92AF
:1001D00011248F93AF93BF93EF93FF938091C30844
:1001E00086FF17C0E0E2F4E0858184608583A0EC9F
:1001F000B8E013968C911397806413968C931397A1
:1002000012968C9112978F7B12968C9386818460C4
:100210008683FF91EF91BF91AF918F910F900FBEA9
:100220000F901F9018951F920F920FB60F921124E6
:100230002F933F934F935F936F937F938F939F93EE
:10024000AF93BF93CF93DF93EF93FF93C0E0DAE0D8
:100250008B8581608B870E944F0490E08EA39FA3C3
:10026000862F972F0E944404FF91EF91DF91CF9149
:10027000BF91AF919F918F917F916F915F914F91BE
:100280003F912F910F900FBE0F901F9018951F92C6
:100290000F920FB60F9211242F938F939F93EF938A
:1002A000FF93E0E8FAE086818160868380910438DC
:1002B0008F5F80930438209104388DEC289F812D26
:1002C0001124869586958695880F982F990F990FFA
:1002D000890F281B20930438FF91EF919F918F91F4
:1002E0002F910F900FBE0F901F9018951F920F9295
:1002F0000FB60F9211242F933F934F935F936F93F9
:100300007F938F939F93AF93BF93EF93FF938091CE
:10031000AB0886FF18C08091AB0883FF09C0E0EAF4
:10032000F8E083858860838782E08093AA0862C0B2
:100330008091AB0880FF04C083E08093AA0803C0CB
:1003400082E08093AA088091AB0888230CF052C009
:100350008091AB0881FF47C00E9486078130B9F0C9
:1003600028F0823029F1833099F136C091110AC00A
:1003700080E00E9488028093173890931838809309
:10038000AD082DC0809118388093AD0828C0911118
:100390000AC081E00E948802809317389093183831
:1003A0008093AD081CC0809118388093AD0817C0A9
:1003B000911109C00E94CF03809317389093183889
:1003C0008093AD080CC0809118388093AD0807C0A9
:1003D0000E94C0028093AD088BE08093AD0883E05B
:1003E0008093AA0807C083E08093AA088091AD0893
:1003F0000E940307FF91EF91BF91AF919F918F9161
:100400007F916F915F914F913F912F910F900FBE10
:100410000F901F90189560E081E690E00E94C90B54
:100420000E94A9000E94EF070E94FC070E94F206AA
:100430000E94C4060E949C030E94AC020E94180401
:10044000789490910538809104389817D1F3809171
:10045000043880930538809105388230A9F128F45A
:10046000882341F0813069F1ECCF833081F186300F
:1004700089F1E7CF0E94C907262F492F440F30E8A2
:10048000839FC0011124FC01E72BBF01223069F0DA
:1004900018F4213031F0D5CF233059F0243069F0F1
:1004A000D0CF80E00E94A006CCCF81E00E94A006C1
:1004B000C8CF82E00E94A006C4CF83E00E94A006BD
:1004C000C0CF0E94D403BDCF0E946D02BACF0E945C
:1004D000C302B7CF0E946D02B4CF80910C069091F9
:1004E0000638911102C098E001C099E0892BE0E044
:1004F000F6E0848782E48A95F1F700C08285816006
:100500008287809106388F5F8170809306380895C6
:10051000E82FF0E0EE0FFF1FE75EF74C808191813E
:100520000895E0910638F0E0EE0FFF1FE95FF74C09
:1005300080839183F8948091063890E0880F991F0A
:10054000FC01E95FF74C20813181FC01E75EF74C4B
:100550002083318378940895E0E0F6E08081816221
:100560008083818181838281806A828380858360A8
:1005700080878285806182878481826084830895F8
:1005800080910B3808958091480483FF10C081E06A
:1005900090E000900D3802C0880F991F0A94E2F78E
:1005A000EDE1F8E380959081892380830EC081E09E
:1005B00090E000900D3802C0880F991F0A94E2F76E
:1005C000EDE1F8E39081892B808380911D388111C2
:1005D00006C080910C388E7F80930C3807C08F3F07
:1005E00029F480910C388E7F80930C388091080418
:1005F00084FF10C081E090E000900D3802C0880FA9
:10060000991F0A94E2F7EDE1F8E38095918189233F
:1006100081830EC081E090E000900D3802C0880F09
:10062000991F0A94E2F7EDE1F8E39181892B818328
:1006300080911E38811106C080910C388D7F809387
:100640000C3807C08F3F29F480910C388D7F809340
:100650000C388091480480FF10C081E090E0009049
:100660000D3802C0880F991F0A94E2F7EDE1F8E314
:1006700080959281892382830EC081E090E0009072
:100680000D3802C0880F991F0A94E2F7EDE1F8E3F4
:100690009281892B828380911F38811106C08091BD
:1006A0000C388B7F80930C3807C08F3F29F48091E2
:1006B0000C388B7F80930C388091280484FF10C005
:1006C00081E090E000900D3802C0880F991F0A94D5
:1006D000E2F7EDE1F8E380959381892383830EC0EF
:1006E00081E090E000900D3802C0880F991F0A94B5
:1006F000E2F7EDE1F8E39381892B83838091203841
:10070000811106C080910C38877F80930C3807C018
:100710008F3F29F480910C38877F80930C3880912B
:100720000D388F5F877080930D38F89480910C3866
:1007300080930B387894089580E090E005C0FC0128
:10074000E35EF74C1082019684309105C4F3E0E437
:10075000F4E08081877F808383898860838BA0E039
:10076000B4E08C918F7E8C9354968C9154978860D2
:1007700054968C9380818E7F808380898860808B63
:10078000E0E2F4E080818F7E808384898860848BBE
:1007900087E893E10197F1F700C000000895809188
:1007A0000F389091103808958091480481FD02C05F
:1007B00090E001C093E08091280483FF02C081E0B3
:1007C000982780910E38891B80FF09C090930E38BE
:1007D000827090912138890F815080932138209127
:1007E0002138222321F180910F3890911038820F07
:1007F000911D27FD9A9580930F3890931038893674
:1008000021E092073CF08856914080930F389093F6
:1008100010380BC099234CF428E631E0A901481B9D
:10082000590B40930F385093103810922138089587
:10083000E0E4F4E080818D7F808381898860818B12
:10084000A0E2B4E08C91877F8C9353968C91539760
:10085000886053968C93808581FD02C080E001C042
:1008600083E09091280493FF02C091E08927809350
:100870000E38109221380895FC01838190E0FB012D
:100880002381821B910908952091C30825FF06C08A
:10089000E0ECF8E020E42283948384830895CF93EE
:1008A0008091113890911238892BC9F080911338BA
:1008B000811115C0C09101384C2F50E0CA01880F3A
:1008C000991F480F591F62E278E386E498E30E947B
:1008D000C00BC093003810921138109212388091DA
:1008E0001338282F30E0F901EE0FFF1F2E0F3F1FA6
:1008F000F901EA5BF74C2081318142818F5F609181
:1009000000380E94C90990931338842FB901CF9100
:1009100008958F929F92AF92BF92CF92DF92EF9203
:10092000FF920F931F93CF938C016A017B01C22F1B
:100930002BE339E848E85CE3C701B6010E945C0993
:100940004B015C0120E030E040E752E4C701B60112
:100950000E947608882394F46C2F70E080E090E089
:100960000E94AC089B01AC01C501B4010E945C0966
:10097000EC2E0E947B08F62EC0E0B1C020E030E0F3
:1009800040EF52E4C701B6010E9476088823E4F4E0
:100990006C2F70E080E090E00E94AC086B017C015D
:1009A000A501940160E070E080E090E40E940908F5
:1009B0009B01AC01C701B6010E945C090E947B0843
:1009C000E62EFC2EC0E08BC020E030E044E353E490
:1009D000C701B6010E9476088823E4F46C2F70E00A
:1009E00080E090E00E94AC086B017C0120E030E0E8
:1009F00040E050E4C501B4010E9409089B01AC012C
:100A0000C701B6010E945C09E12CFC2E0E947B0804
:100A1000C62F65C020E030E040E753E4C701B601CF
:100A20000E9476088823DCF46C2F70E080E090E070
:100A30000E94AC086B017C01A501940160E070E0AC
:100A400080E890E40E9409089B01AC01C701B6014F
:100A50000E945C09E12C0E947B08F62E40C020E039
:100A600030E046E953E4C701B6010E9476088823C6
:100A7000DCF46C2F70E080E090E00E94AC086B0129
:100A80007C0120E030E040E850E4C501B4010E9460
:100A900009089B01AC01C701B6010E945C090E94D4
:100AA0007B08E62EF12C1BC06C2F70E080E090E0FC
:100AB0000E94AC086B017C01A501940160E070E02C
:100AC00080EC90E40E9409089B01AC01C701B601CB
:100AD0000E945C09EC2EF12C0E947B08C62FF801C5
:100AE000E182F382C583CF911F910F91FF90EF9028
:100AF000DF90CF90BF90AF909F908F900895AAE91C
:100B0000B8E381E08C93EAE6F8E382838BE998E32B
:100B10008083918382E012968C93129786838DE96D
:100B200098E38483958314961C92149712868FE918
:100B300098E38087918786E016968C931697868730
:100B400081EA98E38487958787E018968C931897B5
:100B5000828B83EA98E3808B918B85E01A968C9345
:100B60001A97868B85EA98E3848B958B89E01C968F
:100B70008C931C97828F87EA98E3808F918F8AE00D
:100B80001E968C931E97868F89EA98E3848F958FA3
:100B900088E050968C93509782A38BEA98E380A3C9
:100BA00091A38EE052968C93529786A38DEA98E398
:100BB00084A395A38FE054968C93549782A78FEAD1
:100BC00098E380A791A78DE056968C9386A781EB3A
:100BD00098E384A795A7E2E2F8E3108211821282DB
:100BE000089580E090E00CC0FC01EE0FFF1FEE0FB7
:100BF000FF1FE659F74CA081B1812C912383019608
:100C00008C3091058CF32CE334E044E050E06CE050
:100C100070E08AE698E30E941C0A10920138109254
:100C2000243820E030E047EE57EE3EC08091013896
:100C3000682F70E0FB01EE0FFF1F6E0F7F1FFB019F
:100C4000EE5DF74C92819A1768F48F5F80930138BC
:100C500090E0FC01EE0FFF1F8E0F9F1FFC01EE5D69
:100C6000F74CA283F901EE0FFF1FEE0FFF1FE659AD
:100C7000F74C81E090E0028002C0880F991F0A942F
:100C8000E2F780959095482359238091013890E0B0
:100C9000FC01EE0FFF1F8E0F9F1FFC01EE5DF74C56
:100CA000408351832F5F3F4F2C3031055CF4F901B5
:100CB000EE0FFF1FEE0FFF1FE659F74CA381AF3F6A
:100CC00009F0B4CF509101385F5F5093013880E054
:100CD00090E040E02FC0215031098217930759F46A
:100CE000FC01EE0FFF1FE80FF91FEE5DF74C242FFC
:100CF0002095228315C09C012F5F3F4FF901EE0F15
:100D0000FF1F2E0F3F1FF901EE5DF74C2281FC0102
:100D1000EE0FFF1FE80FF91FEE5DF74C241B228337
:100D2000FC01EE0FFF1FE80FF91FEE5DF74C22816B
:100D3000420F0196252F30E08217930764F2089541
:100D40001F93CF93DF93142FC82FD0E080E090E063
:100D50000E94AA08AB01BC01CE01880F991F8C0F1D
:100D60009D1F880F991F212F8656974C0E9489043A
:100D70000E94F10582E298E3809311389093123833
:100D8000DF91CF911F910895E0E0F4E080818A60C7
:100D90008083E0E2F4E0808184608083E0ECF8E02E
:100DA00080E2808384E881838081816080830E94E7
:100DB0007F0540E060E070E080E00E94A00640E037
:100DC00060E070E081E00E94A00640E060E070E03A
:100DD00082E00E94A00640E060E070E083E00E94B4
:100DE000A0060895E0EAF8E089E0848783EE818731
:100DF000E2EBF8E381E0808382E0848383E0808714
:100E000084E084870895E82F88230CF053C0EF779F
:100E100010921438109215388FEF809302388E2F6D
:100E200090E0FC013B97EE34F10508F06EC0E45C05
:100E3000FF4F0C94D50981E080931638089584E023
:100E400080931638089582E080931638089583E0E1
:100E500080931638089510920238E2EBF8E380810F
:100E60008F77808385E080931638089581E08093A2
:100E70000238E2EBF8E384818F77848386E0809305
:100E80001638089582E080930238E2EBF8E380851B
:100E90008F77808787E080931638089583E080936A
:100EA0000238E2EBF8E384858F77848788E08093CB
:100EB00016380895809116388550843010F5809149
:100EC000023890E020911538DC01AA0FBB1FAA0F51
:100ED000BB1FAE54B74CA20FB11D1196EC932F5F00
:100EE00020931538233088F0880F991F880F991F99
:100EF000FC01EE54F74C8081806880831092163894
:100F00000895109215381092163808958091163869
:100F1000823029F118F4813031F035C0833069F125
:100F2000843079F030C080E09091143821E0290FAE
:100F300020931438223060F1109214381092163831
:100F4000089581E09091143821E0290F20931438FE
:100F50002230F0F01092143810921638089582E082
:100F60009091143821E0290F20931438223080F01A
:100F70001092143810921638089583E010921438A5
:100F80001092163808951092143884E01092163892
:100F9000089580E090E01BC0F894FC01EE0FFF1F65
:100FA000EE0FFF1FEE54F74C6081662374F4880F38
:100FB000991F880F991FFC01EE54F74C6F776083DF
:100FC0007181828193817894089578940196853017
:100FD000910514F36FEF70E080E090E00895E0E099
:100FE000FAE081E090E086A397A382858160828702
:100FF00080818D6080830895E0E8FAE088E090E0E9
:1010000084879587858181608583808185608083E1
:1010100008955058BB27AA270E9421080C94220942
:101020000E94140938F00E941B0920F039F49F3FF8
:1010300019F426F40C9411090EF4E095E7FB0C94D6
:101040000B09E92F0E94330958F3BA176207730797
:101050008407950720F079F4A6F50C9455090EF451
:10106000E0950B2EBA2FA02D0B01B90190010C01B8
:10107000CA01A0011124FF27591B99F0593F50F4D0
:10108000503E68F11A16F040A22F232F342F442728
:10109000585FF3CF469537952795A795F040539520
:1010A000C9F77EF41F16BA0B620B730B840BBAF0F0
:1010B0009150A1F0FF0FBB1F661F771F881FC2F75B
:1010C0000EC0BA0F621F731F841F48F4879577956F
:1010D0006795B795F7959E3F08F0B0CF9395880F29
:1010E00008F09927EE0F9795879508950E94E708D5
:1010F00008F481E008950E943B0988F09F5798F01A
:10110000B92F9927B751B0F0E1F0660F771F881F0C
:10111000991F1AF0BA95C9F714C0B13091F00E9426
:101120005509B1E008950C945509672F782F882749
:10113000B85F39F0B93FCCF3869577956795B3954D
:10114000D9F73EF490958095709561957F4F8F4FBC
:101150009F4F0895E89409C097FB3EF490958095C1
:10116000709561957F4F8F4F9F4F9923A9F0F92F6D
:1011700096E9BB279395F695879577956795B795EB
:10118000F111F8CFFAF4BB0F11F460FF1BC06F5FD1
:101190007F4F8F4F9F4F16C0882311F096E911C0E3
:1011A000772321F09EE8872F762F05C0662371F004
:1011B00096E8862F70E060E02AF09A95660F771F18
:1011C000881FDAF7880F9695879597F90895990FF4
:1011D0000008550FAA0BE0E8FEEF16161706E80701
:1011E000F907C0F012161306E407F50798F0621B22
:1011F000730B840B950B39F40A2661F0232B242BF7
:10120000252B21F408950A2609F4A140A6958FEF15
:10121000811D811D089597F99F6780E870E060E067
:1012200008959FEF80EC089500240A94161617067F
:1012300018060906089500240A94121613061406C7
:1012400005060895092E0394000C11F4882352F02A
:10125000BB0F40F4BF2B11F460FF04C06F5F7F4FE2
:101260008F4F9F4F089557FD9058440F551F59F0C9
:101270005F3F71F04795880F97FB991F61F09F3F83
:1012800079F087950895121613061406551FF2CFAC
:101290004695F1DF08C0161617061806991FF1CFFC
:1012A00086957105610508940895E894BB27662723
:1012B0007727CB0197F908950E946F090C942209B2
:1012C0000E94140938F00E941B0920F0952311F0A8
:1012D0000C940B090C94110911240C9456090E94CA
:1012E000330970F3959FC1F3950F50E0551F629F2E
:1012F000F001729FBB27F00DB11D639FAA27F00D6F
:10130000B11DAA1F649F6627B00DA11D661F829F95
:101310002227B00DA11D621F739FB00DA11D621F7A
:10132000839FA00D611D221F749F3327A00D611D97
:10133000231F849F600D211D822F762F6A2F112479
:101340009F5750409AF0F1F088234AF0EE0FFF1FAC
:10135000BB1F661F771F881F91505040A9F79E3F03
:10136000510580F00C940B090C9456095F3FE4F38F
:10137000983ED4F3869577956795B795F795E79559
:101380009F5FC1F7FE2B880F911D9695879597F962
:101390000895991B79E004C0991F961708F0961BD1
:1013A000881F7A95C9F780950895EE0FFF1F059065
:1013B000F491E02D0994DC01FB018C9190819D93C7
:1013C00081934150510914161506BCF30895A0E00D
:1013D000B0E0EDEEF9E00C94ED0B7C016B01D42F45
:1013E000C52F8901F90109956D2F7C2F97FF10C03A
:1013F000C601F801099597FF02C0C60118C06D2FFC
:101400007C2FC701F801099597FD0FC0C7010FC0D8
:10141000C601F8010995181619067CF36D2F7C2F6B
:10142000C701F801099597FDF1CF8D2F9C2FCDB7FE
:10143000DEB7E8E00C94060CAAE0B0E0E2E2FAE0E5
:101440000C94E30B8C017B0149875A87690129853C
:101450003A85200F311F29833A8337E0E316F104E0
:1014600070F569807A8049855A85E49E5001E59E31
:10147000B00CF49EB00C1124A00EB11E6A147B04B3
:1014800008F07AC173010E151F0528F089859A8529
:10149000680E791EF3CF4701E985FA858E1A9F0AF7
:1014A000B701C401F6010995181619067CF749859C
:1014B0005A85B401C7010E94DB097401E4CFC7015A
:1014C0009695879529853A85829F5001839FB00C18
:1014D000929FB00C1124A00EB11EA70141505109DA
:1014E0004B835C8357E0E516F10409F44CC08B8113
:1014F0009C81829F3001839F700C929F700C1124FD
:10150000600E711E99E2E916F104A8F1C70143E0EB
:10151000969587954A95E1F7829F4001839F900CAD
:10152000929F900C11241401220C331CA801420D2F
:10153000531DB801680D791D9601C8010E94E70985
:101540002C01A501480D591D919481949108960193
:10155000B501C501880D991D0E94E7095C01B30121
:10156000680D791D9601A301C301821993090E9498
:10157000E7093C0101C028019601A301B501C201A0
:101580000E94E7095C0149855A85B501C8010E949E
:10159000DB0969807A802B813C8149855A85249FAB
:1015A000F001259FF00D349FF00D1124ED83FE8393
:1015B0005F01A00EB11E460D571D4B835C832501B4
:1015C000130119821A828B809C8089859A85881ADA
:1015D000990AA814B90408F450C0B801C401F6016E
:1015E000099518161906C4F1892B71F449855A8595
:1015F000B401C1010E94DB0989859A85280E391E34
:10160000E1E0F0E0E983FA832B813C8149855A854A
:10161000240F351F2B833C83D6CFB801C501F601BB
:101620000995950149855A85241B350B2F833887E9
:1016300097FD16C0892B71F449855A85B201C50101
:101640000E94DB0929853A85421A530A41E050E09D
:1016500049835A83AF80B884A814B904F0F60DC04A
:1016600049855A85B501C4010E94DB09AF80B88461
:1016700041E050E049835A83C7CF89819A81892B01
:1016800009F44FC06D807E8029853A85620E731EF5
:10169000600E711E7401E218F308A101401B510B8A
:1016A000E416F5060CF4A7011416150634F4B4017B
:1016B000641B750BC8010E94DB09A2014A195B0972
:1016C0005A01A3014419550989859A85481B590B6C
:1016D000A416B50608F4A5011416150634F4B301D2
:1016E000641B750BC4010E94DB09E985FA85EE15C0
:1016F000FF0548F4C701BF010E94CF0B9601AF015F
:10170000C8010E941C0A29853A852A153B05A0F5C7
:1017100083010A191B09C501B9010E94CF0B7B0186
:1017200096CEE985FA85EE9E5001EF9EB00CFE9EA6
:10173000B00C1124A00EB11E6A147B04E8F47301EE
:101740000E151F0528F089859A85680E791EF4CF3D
:101750004701E985FA858E1A9F0AB701C401F6018F
:101760000995181619067CF749855A85B401C701F1
:101770000E94DB097401E4CF2A96E2E10C94FC0B91
:10178000FB01DC0102C001900D9241505040D8F79E
:101790000895DC0128ED209334006C930895AA1B72
:1017A000BB1B51E107C0AA1FBB1FA617B70710F04C
:1017B000A61BB70B881F991F5A95A9F7809590957E
:1017C000BC01CD0108952F923F924F925F926F928C
:1017D0007F928F929F92AF92BF92CF92DF92EF92C1
:1017E000FF920F931F93CF93DF93CDB7DEB7CA1B42
:1017F000DB0BCDBFDEBF09942A88398848885F8417
:101800006E847D848C849B84AA84B984C884DF80A0
:10181000EE80FD800C811B81AA81B981CE0FD11D84
:0C182000CDBFDEBFED010895F894FFCFAE
:04182C000101FF00B7
:00000001FF
