S00B00004D43552E7372656334
S113000012C02CC02BC02AC029C028C0A6C026C03C
S113001025C024C023C023C021C020C01FC01EC0CF
S11300201DC01CC01BC011241FBECFE5D2E0DEBF23
S1130030CDBF10E0A0E6B0E0E2E3F2E002C005903C
S11300400D92AE39B107D9F720E0AEE9B0E001C0B6
S11300501D92AF39B207E1F7A5D0E9C0D1CF1F9205
S11300600F920FB60F9211242F933F938F939F9368
S113007024B135B180E0932F822B029720F082E0E7
S113008080939E0003C08EE080939E009F918F9189
S11300903F912F910F900FBE0F901F90189515BA96
S11300A013BE83B7846083BF78948CEF82BF89B713
S11300B0826089BF089586E287B986E886B913B855
S11300C00895E0919E00F0E0E657FF4F60916000D4
S11300D0808198D0382FE0919E00F0E0EA58FF4FDD
S11300E06091600080818ED0282FE0919E00F0E026
S11300F0EE59FF4F60916000808184D04BB3457E00
S113010090916100931718F462E070E002C060E01F
S113011070E090916100921718F420E130E002C081
S113012020E030E0262B372B90916100981718F4CB
S113013088E090E002C080E090E0822B932B842B37
S11301408BBB809161008F5F80936100809161001F
S11301506FE061D09093610008951F920F920FB6E3
S11301600F9211242F933F934F935F936F937F9339
S11301708F939F93AF93BF93EF93FF93A2DF8CEF83
S113018082BFFF91EF91BF91AF919F918F917F912A
S11301906F915F914F913F912F910F900FBE0F90F0
S11301A01F9018958AE18ABB86DF79DF86B1806467
S11301B086B93699FECF85B1813820F082E08093EC
S11301C09E0003C08EE080939E0087EA91E601972B
S11301D0F1F700C0000080919E0098E090939E008B
S11301E0E7EAF1E63197F1F700C0000080939E0042
S11301F0FFE32DE083E0F15020408040E1F700C0B0
S11302000000D4CF002480FD060E660F11F0869501
S1130210D1F7802D0895991B79E004C0991F961792
S113022008F0961B881F7A95C9F780950895F8946D
S1050230FFCFFA
S113023205020003000000000000000102030303A2
S11302420303030302010003000102030303030384
S11302520303020100000000000000030303030380
S111026202010000000000000001020303037B
S9030000FC
