:1000000012C02CC02BC02AC029C079C059C049C118
:1000100099C124C023C092C021C020C01FC01EC0EF
:100020001DC01CC01BC011241FBECFE5D2E0DEBF27
:10003000CDBF10E0A0E6B0E0E2EBF5E002C0059035
:100040000D92A036B107D9F720E0A0E6B0E001C0DC
:100050001D92AD3FB207E1F7F1D0A9C2D1CFCF9346
:10006000DF931F92CDB7DEB7898382E0FA018083E8
:1000700089818823E9F0FB0180818336A1F4809196
:10008000F9009091FA00A091FB00B091FC006894F7
:1000900014F8B695A795979587951694D1F7F90119
:1000A0009083818309C082E4F9018083818304C045
:1000B00088E5F901808381830F90DF91CF910895C6
:1000C0001F920F920FB60F9211248F939F938091DE
:1000D000600091E0980F9093600080FF04C088B3A7
:1000E000806488BB03C088B38F7B88BB80EB82BFF2
:1000F0009F918F910F900FBE0F901F9018951F9298
:100100000F920FB60F9211248F939F9380916000EE
:1001100091E0980F9093600080FF04C088B38064E2
:1001200088BB03C088B38F7B88BB80EB8EBD9F915B
:100130008F910F900FBE0F901F9018951F920F92E6
:100140000FB60F921124EF92FF920F931F932F93EC
:100150003F934F935F936F937F938F939F93AF934F
:10016000BF93EF93FF9384B125B130E0322F222764
:10017000282B8091F9009091FA00A091FB00B0919A
:10018000FC00AC01BD01420F531F611D711DE091C8
:1001900061008E2F90E001968F719078992324F45E
:1001A0000197806E9F6F0196880F991FDC01A754FD
:1001B000BF4F8D919C917A018B01E81AF90A0109D0
:1001C0001109E092F900F092FA000093FB001093FD
:1001D000FC00EF5FEF71E0936100F0E0EE0FFF1FB6
:1001E000E754FF4F3183208386B1806186B9FF9148
:1001F000EF91BF91AF919F918F917F916F915F919F
:100200004F913F912F911F910F91FF90EF900F9081
:100210000FBE0F901F90189510BE1FBC8FB5826047
:100220008FBD86EF8EBD89B7846089BF089581E058
:1002300087B988EA86B986E083B9089587B3806470
:1002400087BBF5DFE9DF20E030E04FE250E061E01E
:1002500084E028D17894FFCF8AB38E7F8ABB08953B
:100260008AB381608ABB0895F7DF8BB38E7F8BBB27
:100270008AB38B7F8ABB8BB38B7F8BBBF1DF8BB356
:1002800081608BBBE9DF8BB381608BBB8AB38460F9
:100290008ABB8BB384608BBB80ED8EB988EA8DB945
:1002A00008951F920F920FB60F9211242F933F9330
:1002B0004F935F936F937F938F939F93AF93BF936E
:1002C000EF93FF93C9DF11C0C89B0FC0CDDF8091B2
:1002D0006E00882331F18091680090916900019649
:1002E00090936900809368001CC0C89902C0CA99A5
:1002F000EBCF80916E00882349F080916C00909143
:100300006D00019690936D0080936C001092B40084
:1003100081E08093B3008FEF8FB988EF8DB980EDC6
:100320008EB9FF91EF91BF91AF919F918F917F9186
:100330006F915F914F913F912F910F900FBE0F9052
:100340001F9018951F920F920FB60F9211242F93A2
:100350003F934F935F936F937F938F939F93AF934D
:10036000BF93EF93FF932FB180916E00882349F0E4
:10037000809166009091670001969093670080934A
:1003800066008091B400823009F44AC028F48823C2
:1003900061F0813059F172C0843009F453C008F41F
:1003A00046C0853009F457C069C0922F91702695D8
:1003B0008091B200281310C082E08093B30099238B
:1003C00021F081E08093B40003C084E08093B40006
:1003D0001FB846DF8EE053C01FB880ED8EB988EAA3
:1003E0008DB983E08093B30080E049C084E08093BE
:1003F000B30082E08093B400E0916F0080917000C0
:10040000E81750F481E08E0F80936F00F0E0EF5812
:10041000FF4F80818FB901C01FB822DF80E02FC05D
:1004200083E08093B4001FB817DF8EE028C022233A
:1004300029F01092B40018DF80E021C081E08093A1
:10044000B4009FCF84E08093B30085E08093B40034
:1004500003DF80E014C084E08093B400E091910059
:10046000EF3140F481E08E0F80939100F0E0EE5682
:10047000FF4F20831FB8F4DE8EE001C080E080656E
:100480008EB9FF91EF91BF91AF919F918F917F9125
:100490006F915F914F913F912F910F900FBE0F90F1
:1004A0001F901895D62F8093B2005093B6004093BA
:1004B000B5003093B8002093B700109291001092CD
:1004C000700010926F001092B300662319F085B788
:1004D000877E85BF81B3816081BBC6DE7894C0E032
:1004E000E091B700F091B800309771F009958091D4
:1004F0006E00882349F0809162009091630001961C
:100500009093630080936200DD2359F08091B300E3
:10051000811107C085B7806285BF889585B78F7DBB
:1005200085BF759B2DC0F89480916E00882349F09B
:1005300080916A0090916B00019690936B0080937C
:100540006A008EB180628EB98091B300813019F05B
:10055000843019F012C088DE10C080916E008823AC
:1005600059F0809164009091650001969093650028
:1005700080936400C1E001C0C1E01092B3007894A0
:10058000CC2309F4ADCF1092700010926F00E0916F
:10059000B500F091B60021E730E040E750E062E9B5
:1005A00070E08091910009951092910098CFF89495
:0205B000FFCF7B
:00000001FF
